:100000000C945D000C9485000C9485000C94850084
:100010000C9485000C9485000C9485000C9485004C
:100020000C9485000C9485000C9485000C9485003C
:100030000C9485000C9485000C9485000C9485002C
:100040000C943B040C9485000C9409040C94E30379
:100050000C9485000C9485000C9485000C9485000C
:100060000C9485040C9485000000000024002700F7
:100070002A0000000000250028002B0004040404CE
:100080000404040402020202020203030303030342
:10009000010204081020408001020408102001021F
:1000A00004081020000000080002010000030407FB
:1000B0000000000000000000B30511241FBECFEFB8
:1000C000D8E0DEBFCDBF11E0A0E0B1E0EAECFEE099
:1000D00002C005900D92AC32B107D9F722E0ACE234
:1000E000B1E001C01D92A339B207E1F710E0CDE500
:1000F000D0E004C02197FE010E945807CC35D107FB
:10010000C9F70E94EF050C9463070C940000382F88
:100110002091E8019091E701213208F049C08091D7
:10012000C4018111FCCF42E04093C4013093C3016C
:100130003FEF3093C2011092C1012093C001A7ECA0
:10014000B1E040EA51E0FA013E2F341B321718F4B7
:100150003D913193F9CF10929F0120919F01990F0A
:10016000922B90939F0190919E01913061F4109297
:100170009E0190919F019093BB009091BC0093FDD4
:10018000F8CF95EC01C095EE9093BC009091C4011E
:100190009230E1F39091C2019F3F79F08091C201CA
:1001A000803241F08091C201803331F084E005C09B
:1001B00081E003C082E001C083E01092C60110928A
:1001C000E8011092C5010895CF92DF92EF92FF925D
:1001D0000F931F93CF93DF936C017A018B01C0E0E3
:1001E000D0E0CE15DF0589F0D8016D918D01D601E3
:1001F000ED91FC910190F081E02DC6010995892BCC
:1002000011F47E0102C02196ECCFC701DF91CF919E
:100210001F910F91FF90EF90DF90CF900895FC0118
:10022000538D448D252F30E0842F90E0821B930B5B
:10023000541710F0CF96089501970895FC01918D01
:10024000828D981761F0828DDF01A80FB11D5D9638
:100250008C91928D9F5F9F73928F90E008958FEFA6
:100260009FEF0895FC01918D828D981731F0828D5A
:10027000E80FF11D858D90E008958FEF9FEF0895B1
:10028000FC01918D228D892F90E0805C9F4F821B15
:1002900091098F739927089589EE91E00E9440019A
:1002A00021E0892B09F420E0822F0895FC01848D40
:1002B000DF01A80FB11DA35ABF4F2C91848D90E090
:1002C00001968F739927848FA689B7892C93A0896B
:1002D000B1898C9180648C93938D848D981306C022
:1002E0000288F389E02D80818F7D80830895EF92CD
:1002F000FF920F931F93CF93DF93EC0181E0888FE0
:100300009B8D8C8D981305C0E889F989808185FDC6
:1003100024C0F62E0B8D10E00F5F1F4F0F731127B7
:10032000E02E8C8DE8120CC00FB607FCFACFE889DE
:10033000F989808185FFF5CFCE010E945601F1CF6A
:100340008B8DFE01E80FF11DE35AFF4FF0820B8FFA
:10035000EA89FB898081806207C0EE89FF8960831A
:10036000E889F98980818064808381E090E0DF9171
:10037000CF911F910F91FF90EF900895CF93DF934E
:10038000EC01888D8823C9F0EA89FB89808185FD8D
:1003900005C0A889B9898C9186FD0FC00FB607FCEE
:1003A000F5CF808185FFF2CFA889B9898C9185FF2F
:1003B000EDCFCE010E945601E7CFDF91CF91089596
:1003C00080E090E0892B29F00E944C0181110C946F
:1003D0000000089590E0FC01EC55FF4F3491FC01C2
:1003E000E057FF4F2491FC01E458FF4FE491EE23C6
:1003F00009F43BC0332339F1333091F038F4313014
:10040000A9F0323001F584B58F7D12C0373091F0FC
:100410003830A1F03430B9F4809180008F7D03C072
:10042000809180008F77809380000DC084B58F7796
:1004300084BD09C08091B0008F7703C08091B00067
:100440008F7D8093B000F0E0EE0FFF1FEE58FF4F5E
:10045000A591B4918FB7F894EC91611103C02095E8
:100460002E2301C02E2B2C938FBF0895CF93DF93A3
:1004700090E0FC01E057FF4F2491FC01E458FF4F4E
:100480008491882361F190E0880F991FFC01E8595D
:10049000FF4FC591D491FC01EE58FF4FA591B49147
:1004A000611109C09FB7F8948881209582238883C1
:1004B000EC912E230BC0623061F49FB7F894388121
:1004C000822F809583238883EC912E2B2C939FBFC2
:1004D00006C08FB7F894E8812E2B28838FBFDF9159
:1004E000CF9108953FB7F894809178019091790168
:1004F000A0917A01B0917B0126B5A89B05C02F3F42
:1005000019F00196A11DB11D3FBFBA2FA92F982F39
:100510008827820F911DA11DB11DBC01CD0142E0B4
:10052000660F771F881F991F4A95D1F708958F92FC
:100530009F92AF92BF92CF92DF92EF92FF926B01A8
:100540007C010E9472024B015C01C114D104E104E0
:10055000F104F1F00E947202DC01CB0188199909C3
:10056000AA09BB09883E9340A105B10570F321E0BB
:10057000C21AD108E108F10888EE880E83E0981EBF
:10058000A11CB11CC114D104E104F10419F7DDCFA1
:10059000FF90EF90DF90CF90BF90AF909F908F90A3
:1005A000089585ED8093BC008091BC0084FDFCCF54
:1005B0001092C401089540914E01262F30E0240F7F
:1005C000311D21323105DCF42091C4012430C9F4FD
:1005D000FC0180E090E0861758F430914E012191A3
:1005E000DC01A45DBE4FA30FB11D2C930196F3CF88
:1005F00080914E01680F60934E0180E0089581E084
:10060000089582E008950895E0917D0180917C0134
:10061000E81730F4F0E0E258FE4F808190E0089552
:100620008FEF9FEF089590917D0180917C01981745
:1006300050F4E92FF0E0E258FE4F208130E09F5F58
:1006400090937D0102C02FEF3FEFC9010895809183
:100650007C0190E020917D01821B91090895CF9249
:10066000DF92EF92FF920F931F93CF93DF937C0162
:10067000262F972F8A018091C501882391F0C62FDC
:10068000D72F6E01C40ED51ECC15DD0571F0699112
:10069000D701ED91FC910190F081E02DC701099502
:1006A000F3CF642F822F0E94DB02C801DF91CF912C
:1006B0001F910F91FF90EF90DF90CF900895CF930F
:1006C000DF931F92CDB7DEB769832091C501222346
:1006D000D1F02091E801203240F021E030E0FC012F
:1006E0003383228380E090E015C08091C601E82F1B
:1006F000F0E0E953FE4F998190838F5F8093C601AC
:100700008093E80105C061E0CE0101960E94DB0202
:1007100081E090E00F90DF91CF910895CF93C62FA5
:100720009091920221E02093C5019093E7011092ED
:10073000C6011092E801682F86E892E00E945F03EC
:100740006C2F86E892E00E945F0381E0CF910C94C9
:100750008700682F86E892E00C945F03CF93DF93C5
:10076000D62FC72F9091920221E02093C50190933C
:10077000E7011092C6011092E80124E0829FC001B7
:100780001124BC016A5F7F4F86E892E00E945F03FC
:1007900080E090E00E94A90380E090E00E94A9031D
:1007A0008D2F9C2F0E94A9038C2F90E00E94A903FB
:1007B00081E0DF91CF910C948700089580E090E074
:1007C00008950E945E071F920F920FB60F92112498
:1007D0002F933F934F935F936F937F938F939F9349
:1007E000AF93BF93EF93FF9389EE91E00E94560180
:1007F000FF91EF91BF91AF919F918F917F916F91F9
:100800005F914F913F912F910F900FBE0F901F90CE
:1008100018951F920F920FB60F9211242F938F935A
:100820009F93EF93FF93E091F901F091FA0180819A
:10083000E091FF01F091000282FD12C09081809151
:1008400002028F5F8F7320910302821751F0E091B3
:100850000202F0E0E751FE4F958F8093020201C043
:100860008081FF91EF919F918F912F910F900FBEFB
:100870000F901F9018951F920F920FB60F92112490
:100880002F933F938F939F93AF93BF938091740166
:1008900090917501A0917601B0917701309173012B
:1008A00023E0230F2D3720F40196A11DB11D05C0B3
:1008B00026E8230F0296A11DB11D2093730180939A
:1008C000740190937501A0937601B09377018091A4
:1008D000780190917901A0917A01B0917B01019604
:1008E000A11DB11D8093780190937901A0937A01A5
:1008F000B0937B01BF91AF919F918F913F912F91C9
:100900000F900FBE0F901F9018951F920F920FB669
:100910000F9211242F933F934F935F936F937F9385
:100920008F939F93AF93BF93EF93FF938091B90001
:10093000887F803609F49CC068F5883209F45BC072
:1009400090F4803109F454C038F4882309F4F6C0D7
:10095000883009F44DC0F6C0883109F44CC08032AB
:1009600009F45DC0EFC0803409F468C048F48033F6
:1009700009F455C0883309F0E5C08093C201D8C09E
:10098000803509F44FC0883509F45DC0883409F01A
:10099000D9C0D6C0883909F4C7C0A8F4883709F48B
:1009A00067C038F4883609F463C0803709F460C042
:1009B000C9C0883809F4B8C0803909F45FC08038EC
:1009C00009F0C0C05BC0803B09F486C038F4803AAF
:1009D00009F466C0883A09F47FC0B4C0803C09F4C9
:1009E000A7C0883C09F4A4C0883B09F48AC0AAC007
:1009F00080919F0110C09091C1018091C001981712
:100A000070F5E091C10181E08E0F8093C101F0E0AB
:100A1000E056FE4F80818093BB0085EC86C08093BA
:100A2000C2018EC0E091C10181E08E0F8093C101AF
:100A30008091BB00F0E0E056FE4F80839091C101B1
:100A40008091C0016EC0E091C10181E08E0F809362
:100A5000C1018091BB00F0E0E056FE4F80838091A1
:100A6000C30181116DC081E080939E0184EA61C061
:100A700083E08093C40110927201CFCF8091720104
:100A8000803208F051C0E091720181E08E0F8093B6
:100A900072018091BB00F0E0EE5AFE4F8083BDCF23
:100AA00085EC8093BC001092C40180917201803269
:100AB00030F4E0917201F0E0EE5AFE4F1082609146
:100AC000720170E0E0915001F091510182E591E0F6
:100AD00009951092720136C084E08093C40110928F
:100AE0004F0110924E01E0914C01F0914D0109959A
:100AF00080914E01811105C081E080934E011092DA
:100B00002C01E0914F0181E08E0F80934F01F0E0C6
:100B1000E45DFE4F80818093BB0090914F018091F6
:100B20004E01981708F479CF85E88093BC000AC07D
:100B300085EC8093BC001092C40104C01092C201E5
:100B40000E94D102FF91EF91BF91AF919F918F9140
:100B50007F916F915F914F913F912F910F900FBEB9
:100B60000F901F901895E9EEF1E01382128288EE43
:100B700093E0A0E0B0E084839583A683B7832CE064
:100B800031E03183208325EC30E03587248724EC65
:100B900030E03787268720EC30E0318B208B21EC4A
:100BA00030E0338B228B22EC30E0358B248B26EC2B
:100BB00030E0378B268B118E128E138E148EE6E862
:100BC000F2E01382128284839583A683B7838EE139
:100BD00091E09183808380E48093920208957894D9
:100BE00084B5826084BD84B5816084BD85B5826032
:100BF00085BD85B5816085BD80916E0081608093E3
:100C00006E0010928100809181008260809381004B
:100C1000809181008160809381008091800081605B
:100C2000809380008091B10084608093B1008091B6
:100C3000B00081608093B00080917A0084608093DE
:100C40007A0080917A00826080937A0080917A00A5
:100C5000816080937A0080917A00806880937A0026
:100C60001092C100C0E0D1E061E088810E943602AC
:100C7000229681E0C830D807B9F7E091F901F091E8
:100C8000FA0182E08083E091F501F091F601108293
:100C9000E091F701F091F8018FEC8083109201024E
:100CA000E091FD01F091FE0186E08083E091FB017F
:100CB000F091FC01808180618083E091FB01F091E3
:100CC000FC01808188608083E091FB01F091FC0150
:100CD000808180688083E091FB01F091FC0180813C
:100CE0008F7D808361E081E10E94360262E080E0D6
:100CF0000E94360210927D0110927C011092C60172
:100D00001092E8011092C401C1E0C093C301109297
:100D10009E0161E082E10E94EA0161E083E10E94BC
:100D2000EA018091B9008E7F8093B9008091B9006B
:100D30008D7F8093B90088E48093B80085E4809328
:100D4000BC0060E080E00E948E0380919202C0931C
:100D5000C5018093E7011092C6011092E80160E09E
:100D600086E892E00E945F0381E00E948700809104
:100D700092029091C4019111FCCF91E09093C40133
:100D80009093C3012FEF2093C2011092C1011092E2
:100D9000C00190939F0190919F01880F892B8093B0
:100DA0009F0180919E01813061F410929E0180919B
:100DB0009F018093BB008091BC0083FDF8CF85EC40
:100DC00001C085EE8093BC008091C4018130E1F3C5
:100DD0008091C101811103C08091C10101C081E0F6
:100DE000A0EAB1E02EE731E0F9019E2F921B98179F
:100DF00018F49D919193F9CF10927D0180937C011D
:100E000086E892E00E941303C82F682F6F76606116
:100E100080E00E948E0363E08EEF0E948E036C2FB1
:100E200080E00E948E0365E070E080E090E00E9428
:100E300097026C2F616A80E00E948E038091B80057
:100E40008CE08093B800C0E0D1E01881229661E088
:100E5000812F0E94EA0168EE73E080E090E00E943A
:100E6000970260E0812F0E94EA0181E0C830D80734
:100E700061F761E081E10E94EA01C4E000E010E076
:100E8000B8018C2F0E94AE030C5F1F4F011580E14B
:100E90001807B1F700E010E16BEF7FE08C2F0E94A4
:100EA000AE0301501109C1F7CF5FCC3039F7E5CF60
:100EB000EE0FFF1F0590F491E02D099481E090E082
:0A0EC000F8940C946307F894FFCF38
:100ECA000A000B000C000D00000000007701E4008E
:100EDA000F01BE0140011E013201000000005F0344
:0C0EEA002F03DE0303032703130304039C
:107800000C94343C0C94513C0C94513C0C94513CE1
:107810000C94513C0C94513C0C94513C0C94513CB4
:107820000C94513C0C94513C0C94513C0C94513CA4
:107830000C94513C0C94513C0C94513C0C94513C94
:107840000C94513C0C94513C0C94513C0C94513C84
:107850000C94513C0C94513C0C94513C0C94513C74
:107860000C94513C0C94513C11241FBECFEFD8E036
:10787000DEBFCDBF11E0A0E0B1E0ECE9FFE702C060
:1078800005900D92A230B107D9F712E0A2E0B1E065
:1078900001C01D92AD30B107E1F70E942D3D0C945F
:1078A000CC3F0C94003C982F959595959595959582
:1078B000905D8F708A307CF0282F295A8091C0000B
:1078C00085FFFCCF9093C6008091C00085FFFCCF60
:1078D0002093C6000895282F205DF0CF982F809127
:1078E000C00085FFFCCF9093C6000895EF92FF92F1
:1078F0000F931F93EE24FF2487018091C00087FD22
:1079000017C00894E11CF11C011D111D81E4E8164B
:1079100082E4F8068FE0080780E0180770F3E09132
:107920000401F091050109958091C00087FFE9CF1E
:107930008091C6001F910F91FF90EF9008950E94D3
:10794000763C982F8091C00085FFFCCF9093C600B5
:1079500091362CF490330CF09053892F089597555D
:10796000892F08951F930E949F3C182F0E949F3CCF
:107970001295107F810F1F9108951F93182F882350
:1079800021F00E94763C1150E1F71F9108951F935A
:10799000182F0E94763C803249F0809103018F5F5E
:1079A000809303018530C1F01F9108958091C0003C
:1079B00085FFFCCF84E18093C6008091C00085FFE5
:1079C000FCCF1093C6008091C00085FFFCCF80E102
:1079D0008093C6001F910895E0910401F091050184
:1079E00009951F9108950E94763C803241F0809164
:1079F00003018F5F80930301853081F008958091AA
:107A0000C00085FFFCCF84E18093C6008091C00058
:107A100085FFFCCF80E18093C6000895E0910401CA
:107A2000F09105010995089540E951E08823A1F0FE
:107A30002D9A28EE33E0FA013197F1F721503040CA
:107A4000D1F72D9828EE33E0FA013197F1F7215064
:107A50003040D1F7815061F708953F924F925F9285
:107A60006F927F928F929F92AF92BF92CF92DF924E
:107A7000EF92FF920F931F93CF93DF93000080E16B
:107A80008093C4001092C50088E18093C10086E015
:107A90008093C2005098589A259A81E00E94143D24
:107AA00024E1F22E9EE1E92E85E9D82E0FE0C02ECA
:107AB00010E1B12EAA24A394B1E49B2EA6E58A2E50
:107AC000F2E57F2EE0E26E2E79E4572E63E5462E36
:107AD00050E5352E0E94763C8033B1F18133B9F107
:107AE000803409F46FC0813409F476C0823409F41B
:107AF00085C0853409F488C0803531F1823521F1A3
:107B0000813511F1853509F485C0863509F48DC0BC
:107B1000843609F496C0843709F403C1853709F423
:107B200072C1863709F466C0809103018F5F80932C
:107B30000301853079F6E0910401F0910501099582
:107B40000E94763C803351F60E94F33CC3CF0E94E2
:107B5000763C803249F78091C00085FFFCCFF092DF
:107B6000C6008091C00085FFFCCF9092C600809136
:107B7000C00085FFFCCF8092C6008091C00085FFC9
:107B8000FCCF7092C6008091C00085FFFCCF609250
:107B9000C6008091C00085FFFCCF5092C600809146
:107BA000C00085FFFCCF4092C6008091C00085FFD9
:107BB000FCCF3092C6008091C00085FFFCCFB09210
:107BC000C60088CF0E94763C863808F4BDCF0E945C
:107BD000763C0E94F33C7ECF0E94763C803809F4CC
:107BE0009CC0813809F40BC1823809F43CC1883942
:107BF00009F48FC080E00E94C73C6CCF84E10E94F2
:107C0000BD3C0E94F33C66CF85E00E94BD3C0E94D3
:107C1000F33C60CF0E94763C809306010E94763C44
:107C2000809307010E94F33C55CF0E94763C80333D
:107C300009F41DC183E00E94BD3C80E00E94C73C66
:107C400049CF0E94763C809309020E94763C809343
:107C5000080280910C028E7F80930C020E94763C79
:107C6000853409F415C18091080290910902892B8D
:107C700089F000E010E00E94763CF801E85FFE4FDA
:107C800080830F5F1F4F80910802909109020817AF
:107C9000190788F30E94763C803209F045CF809125
:107CA0000C0280FF01C16091060170910701660F0F
:107CB000771F7093070160930601A0910802B091AD
:107CC00009021097C9F0E8E0F1E09B01AD014E0F09
:107CD0005F1FF999FECF32BD21BD819180BDFA9A17
:107CE000F99A2F5F3F4FE417F50799F76A0F7B1F4B
:107CF00070930701609306018091C00085FFFCCF5F
:107D0000F092C6008091C00085FFFCCFB092C60003
:107D1000E1CE83E00E94C73CDDCE82E00E94C73CFA
:107D2000D9CE0E94763C809309020E94763C8093D3
:107D300008028091060190910701880F991F909386
:107D40000701809306010E94763C853409F4A6C0A1
:107D500080910C028E7F80930C020E94763C8032D0
:107D600009F0B8CE8091C00085FFFCCFF092C6002C
:107D7000609108027091090261157105B9F140E046
:107D800050E080910C02A82FA170B82FB27011C0E2
:107D9000BB2309F45CC0E0910601F0910701319624
:107DA000F0930701E09306014F5F5F4F46175707B7
:107DB000E8F4AA2369F3F999FECF209106013091E6
:107DC000070132BD21BDF89A90B58091C00085FFB2
:107DD000FCCF9093C6002F5F3F4F30930701209355
:107DE00006014F5F5F4F4617570718F38091C00099
:107DF00085FDE5CE8091C00085FFF8CFE0CE81E023
:107E00000E94C73C67CE0E94763C803209F08CCE3F
:107E10008091C00085FFFCCFF092C6008091C00029
:107E200085FFFCCFE092C6008091C00085FFFCCFAB
:107E3000D092C6008091C00085FFFCCFC092C600E2
:107E40008091C00085FFFCCFB092C60043CEE09188
:107E50000601F091070194918091C00085FFFCCF4D
:107E60009093C6009CCF80E10E94C73C33CE0E9415
:107E7000763C0E94763C182F0E94763C112309F430
:107E800083C0113009F484C08FE00E94C73C22CE29
:107E900080910C02816080930C02E5CE80910C02EF
:107EA000816080930C0259CF809107018823880F4D
:107EB000880B8A2180930B02809106019091070123
:107EC000880F991F90930701809306018091080203
:107ED00080FF09C080910802909109020196909359
:107EE000090280930802F894F999FECF1127E091D6
:107EF0000601F0910701C8E0D1E08091080290915D
:107F00000902103091F40091570001700130D9F34B
:107F100003E000935700E89500915700017001308D
:107F2000D9F301E100935700E89509901990009169
:107F3000570001700130D9F301E000935700E89534
:107F40001395103498F011270091570001700130FB
:107F5000D9F305E000935700E895009157000170B0
:107F60000130D9F301E100935700E895329602976A
:107F700009F0C7CF103011F00296E5CF112480919F
:107F8000C00085FFB9CEBCCE8EE10E94C73CA2CD19
:0C7F900085E90E94C73C9ECDF894FFCF0D
:027F9C00800063
:040000030000780081
:00000001FF
